101 987654321  987654321 2406111901A09410       1SUPER BANK                    ANOTHER COMPANY NAME      PPDPAYROLL
5200ANOTHER COMPANY NAME                    987654321  987654321 PPD      PAYROLL   2406112406121987654320000001
627984337564928766738       0000070188               Person 1              0 000000000000001
622281195496461762040       0000015743               Person 2              0 000000000000002
627230544004837676567       0000091774               Person 3              0 000000000000003
621171395837561712992       0000090877               Person 4              0 000000000000004
628771293892257200113       0000092005               Person 5              0 000000000000005
628983576158972063096       0000062740               Person 6              0 000000000000006
622578918204030069212       0000066447               Person 7              0 000000000000007
621856615425690101774       0000033756               Person 8              0 000000000000008
628257686559050498545       0000028086               Person 9              0 000000000000009
622962022464857872944       0000039105               Person 10             0 000000000000010
627199335247247873373       0000027435               Person 11             0 000000000000011
628944431023592493569       0000086606               Person 12             0 000000000000012
622905711901076033780       0000091335               Person 13             0 000000000000013
628459468395792424998       0000035538               Person 14             0 000000000000014
621798294098763571259       0000094657               Person 15             0 000000000000015
622692171427778992397       0000009007               Person 16             0 000000000000016
622271610378730906326       0000097764               Person 17             0 000000000000017
627444788603304065627       0000040202               Person 18             0 000000000000018
627565560837120523410       0000093575               Person 19             0 000000000000019
628176928223096101737       0000020176               Person 20             0 000000000000020
627105601534443470353       0000098061               Person 21             0 000000000000021
627413830176618266422       0000065448               Person 22             0 000000000000022
621473426338866360264       0000079532               Person 23             0 000000000000023
621215229043274995986       0000055212               Person 24             0 000000000000024
628180088367127681421       0000075708               Person 25             0 000000000000025
622727655304235773451       0000018051               Person 26             0 000000000000026
628741194494018118677       0000002245               Person 27             0 000000000000027
627718209543115495281       0000009286               Person 28             0 000000000000028
627141395033004200069       0000089573               Person 29             0 000000000000029
628569533567543839895       0000068941               Person 30             0 000000000000030
622303003392618338851       0000028656               Person 31             0 000000000000031
628637814315962885450       0000013709               Person 32             0 000000000000032
621751148595876152736       0000029603               Person 33             0 000000000000033
621982571735567536539       0000088279               Person 34             0 000000000000034
622790578088686685494       0000004751               Person 35             0 000000000000035
621733854976786743614       0000084345               Person 36             0 000000000000036
621189534009206462098       0000083946               Person 37             0 000000000000037
621944545839812710599       0000039780               Person 38             0 000000000000038
628429434146720587112       0000017420               Person 39             0 000000000000039
621736374622434398392       0000075287               Person 40             0 000000000000040
628123144384723141031       0000083516               Person 41             0 000000000000041
627133234492773514902       0000037372               Person 42             0 000000000000042
621665436121629536183       0000014560               Person 43             0 000000000000043
621814362658381304892       0000018289               Person 44             0 000000000000044
628551004908458165475       0000077521               Person 45             0 000000000000045
622293592268360275220       0000038927               Person 46             0 000000000000046
628597646128274197360       0000005679               Person 47             0 000000000000047
622529530281049260132       0000078102               Person 48             0 000000000000048
627817915465205889064       0000018019               Person 49             0 000000000000049
621687470342936074262       0000034131               Person 50             0 000000000000050
622239837454414555466       0000091876               Person 51             0 000000000000051
628627492106809736230       0000099183               Person 52             0 000000000000052
627874598764377757073       0000081597               Person 53             0 000000000000053
627665853014125836384       0000078160               Person 54             0 000000000000054
627255818733655196164       0000078982               Person 55             0 000000000000055
628909061761009748008       0000059635               Person 56             0 000000000000056
622548519343086195018       0000065598               Person 57             0 000000000000057
621183280079737148398       0000075794               Person 58             0 000000000000058
627240074095245699125       0000015897               Person 59             0 000000000000059
628882497369471066821       0000054271               Person 60             0 000000000000060
627508175538341971445       0000036848               Person 61             0 000000000000061
627897143486289898853       0000058659               Person 62             0 000000000000062
622668031718081024882       0000011027               Person 63             0 000000000000063
622852744857102914273       0000045194               Person 64             0 000000000000064
621267518815204896654       0000087605               Person 65             0 000000000000065
627595988423941025525       0000075678               Person 66             0 000000000000066
622127705065261426662       0000037827               Person 67             0 000000000000067
628527223586533518273       0000044041               Person 68             0 000000000000068
627591312648790723901       0000066580               Person 69             0 000000000000069
622237678786206401677       0000029382               Person 70             0 000000000000070
628127761447076061495       0000097280               Person 71             0 000000000000071
627637848066155403459       0000038145               Person 72             0 000000000000072
621998802582718184990       0000048627               Person 73             0 000000000000073
628534782289604741391       0000053448               Person 74             0 000000000000074
627942518232546266070       0000080372               Person 75             0 000000000000075
628129910505177496029       0000098277               Person 76             0 000000000000076
628258517242229225705       0000020734               Person 77             0 000000000000077
622582995869650239040       0000083011               Person 78             0 000000000000078
621348203052257578525       0000077707               Person 79             0 000000000000079
621403614694129165046       0000033919               Person 80             0 000000000000080
627600328773106172544       0000040594               Person 81             0 000000000000081
627517640822087677660       0000041615               Person 82             0 000000000000082
622877158303422495781       0000084287               Person 83             0 000000000000083
627835019681057990429       0000007872               Person 84             0 000000000000084
622770493337087443751       0000018141               Person 85             0 000000000000085
627935214148550476321       0000098823               Person 86             0 000000000000086
628487664191475024947       0000003761               Person 87             0 000000000000087
621813261215772614028       0000081245               Person 88             0 000000000000088
628602516576950727432       0000020837               Person 89             0 000000000000089
627648747187975913882       0000011857               Person 90             0 000000000000090
621330440435727966087       0000074470               Person 91             0 000000000000091
628422069491326695839       0000025073               Person 92             0 000000000000092
622540621475076592409       0000011225               Person 93             0 000000000000093
622612785804692431695       0000038574               Person 94             0 000000000000094
622663627507604984407       0000022008               Person 95             0 000000000000095
621993319511754270271       0000070637               Person 96             0 000000000000096
622308788641334099802       0000086681               Person 97             0 000000000000097
621987228542986601723       0000007200               Person 98             0 000000000000098
622593285761351316586       0000084077               Person 99             0 000000000000099
621290472654752280163       0000046851               Person 100            0 000000000000100
622674366327950595326       0000056907               Person 101            0 000000000000101
627792043043073920224       0000069866               Person 102            0 000000000000102
628606800473359063994       0000025955               Person 103            0 000000000000103
622794962805282828528       0000049250               Person 104            0 000000000000104
628565873189908764250       0000049837               Person 105            0 000000000000105
621786294717557006673       0000057831               Person 106            0 000000000000106
621213396873896782190       0000003067               Person 107            0 000000000000107
621480859278796344828       0000024286               Person 108            0 000000000000108
628716292242051073564       0000001014               Person 109            0 000000000000109
621394975981128753835       0000090823               Person 110            0 000000000000110
621583615227707084705       0000072443               Person 111            0 000000000000111
628906302127158096246       0000073790               Person 112            0 000000000000112
622488190898013998469       0000011020               Person 113            0 000000000000113
627194533187425869183       0000099486               Person 114            0 000000000000114
622203373146966177834       0000010222               Person 115            0 000000000000115
628561376569500483794       0000037888               Person 116            0 000000000000116
628307931453807365299       0000029556               Person 117            0 000000000000117
622564738521372117098       0000075930               Person 118            0 000000000000118
622889140136153011489       0000045090               Person 119            0 000000000000119
627420239326834938868       0000038998               Person 120            0 000000000000120
627836188509737447981       0000011075               Person 121            0 000000000000121
621287818101754235450       0000069197               Person 122            0 000000000000122
621779498484826367642       0000064624               Person 123            0 000000000000123
627438342141520722115       0000016160               Person 124            0 000000000000124
627336656674649008409       0000014776               Person 125            0 000000000000125
621709211222873679116       0000017645               Person 126            0 000000000000126
622857475815046523313       0000070811               Person 127            0 000000000000127
627464240182377683781       0000054583               Person 128            0 000000000000128
621337286607186559762       0000047373               Person 129            0 000000000000129
621252505694459701100       0000058007               Person 130            0 000000000000130
627388752157172049085       0000060665               Person 131            0 000000000000131
627613169735747198029       0000025716               Person 132            0 000000000000132
627210203795327038739       0000087886               Person 133            0 000000000000133
627282083182748304327       0000005304               Person 134            0 000000000000134
621848639636743489948       0000097177               Person 135            0 000000000000135
622172675199019569242       0000092898               Person 136            0 000000000000136
627475743816591034917       0000052932               Person 137            0 000000000000137
628947251439373273359       0000044916               Person 138            0 000000000000138
621266528016669054902       0000000967               Person 139            0 000000000000139
628755303445385260561       0000098472               Person 140            0 000000000000140
627215349891898379451       0000078998               Person 141            0 000000000000141
627987124873402547900       0000015344               Person 142            0 000000000000142
621211686928499823957       0000001426               Person 143            0 000000000000143
627302785688924232080       0000070459               Person 144            0 000000000000144
627310651499914676606       0000070967               Person 145            0 000000000000145
627208670614073276420       0000036735               Person 146            0 000000000000146
628111467251913319223       0000022306               Person 147            0 000000000000147
622187461102876054855       0000041559               Person 148            0 000000000000148
628160917198238857438       0000019544               Person 149            0 000000000000149
627857731157726744653       0000012242               Person 150            0 000000000000150
627838680849976286757       0000013442               Person 151            0 000000000000151
622880185172176275085       0000057517               Person 152            0 000000000000152
621297685156938215297       0000062128               Person 153            0 000000000000153
627330504099502002155       0000081700               Person 154            0 000000000000154
628817091166333183053       0000061367               Person 155            0 000000000000155
621650914394391357516       0000081085               Person 156            0 000000000000156
627190425857801730805       0000041654               Person 157            0 000000000000157
627401653933192527241       0000082523               Person 158            0 000000000000158
621739041886720784473       0000072961               Person 159            0 000000000000159
622771657381549854929       0000020261               Person 160            0 000000000000160
628940676958405829560       0000081449               Person 161            0 000000000000161
621841889389044916531       0000049775               Person 162            0 000000000000162
627375854771798644439       0000080423               Person 163            0 000000000000163
622106483275235799499       0000047996               Person 164            0 000000000000164
627836120348736432415       0000009245               Person 165            0 000000000000165
627596927508553909579       0000082106               Person 166            0 000000000000166
621158117679099078256       0000088105               Person 167            0 000000000000167
621658820586293751146       0000032774               Person 168            0 000000000000168
628876156048888754687       0000015585               Person 169            0 000000000000169
622199839318157712928       0000069611               Person 170            0 000000000000170
621651138823544962221       0000089148               Person 171            0 000000000000171
621284232589488206635       0000028847               Person 172            0 000000000000172
627323969435707845390       0000044553               Person 173            0 000000000000173
621209297217318941445       0000025040               Person 174            0 000000000000174
627690160578413895524       0000088978               Person 175            0 000000000000175
621367566724178804817       0000074928               Person 176            0 000000000000176
628801948819228058083       0000058511               Person 177            0 000000000000177
622164340365809117556       0000021046               Person 178            0 000000000000178
627527695594696733857       0000067872               Person 179            0 000000000000179
628714858079197444378       0000040511               Person 180            0 000000000000180
628973282465556498896       0000024128               Person 181            0 000000000000181
621629865871244615371       0000072077               Person 182            0 000000000000182
627873543446596028073       0000093360               Person 183            0 000000000000183
627470358236624080450       0000064510               Person 184            0 000000000000184
622841414428624855895       0000072278               Person 185            0 000000000000185
621610148674057039690       0000092403               Person 186            0 000000000000186
628668247903986377454       0000067830               Person 187            0 000000000000187
628662076802546624322       0000002346               Person 188            0 000000000000188
627851300639693551845       0000057225               Person 189            0 000000000000189
628786966408569010667       0000026169               Person 190            0 000000000000190
627676398129201767923       0000084872               Person 191            0 000000000000191
622851649277522275143       0000076364               Person 192            0 000000000000192
622878548979807453354       0000097266               Person 193            0 000000000000193
621216481158610049257       0000037117               Person 194            0 000000000000194
628669789214648866707       0000075585               Person 195            0 000000000000195
621816441723247309187       0000032910               Person 196            0 000000000000196
627601954002718566146       0000002952               Person 197            0 000000000000197
628763635547718133928       0000053683               Person 198            0 000000000000198
622386766399590678506       0000040458               Person 199            0 000000000000199
628658676676842885244       0000057147               Person 200            0 000000000000200
627110782193567894369       0000034688               Person 201            0 000000000000201
622750469352998984744       0000087881               Person 202            0 000000000000202
627461615938516565542       0000057249               Person 203            0 000000000000203
627478575128638032600       0000073182               Person 204            0 000000000000204
628118904269560448677       0000078897               Person 205            0 000000000000205
628429714498538381605       0000091090               Person 206            0 000000000000206
628161943498478504254       0000002316               Person 207            0 000000000000207
622130200227909825364       0000056611               Person 208            0 000000000000208
621362150904934724258       0000023478               Person 209            0 000000000000209
621688245712917867647       0000099395               Person 210            0 000000000000210
627872098313014034348       0000005575               Person 211            0 000000000000211
622421877217808616114       0000049396               Person 212            0 000000000000212
628871312625608691920       0000027492               Person 213            0 000000000000213
628993343498956912742       0000077780               Person 214            0 000000000000214
628334422491527409063       0000039457               Person 215            0 000000000000215
627230860075629093525       0000091500               Person 216            0 000000000000216
628928299525157216012       0000031649               Person 217            0 000000000000217
621909849733348650832       0000040906               Person 218            0 000000000000218
621519062439989201528       0000047069               Person 219            0 000000000000219
627728980665782596593       0000082558               Person 220            0 000000000000220
627436088043828815284       0000061285               Person 221            0 000000000000221
622281067081351460786       0000054290               Person 222            0 000000000000222
621596044351424956526       0000066720               Person 223            0 000000000000223
621585356415329460663       0000027558               Person 224            0 000000000000224
622889027559828550519       0000014306               Person 225            0 000000000000225
621565055779225459944       0000088758               Person 226            0 000000000000226
628513135481280157394       0000038276               Person 227            0 000000000000227
627702159301640447923       0000087040               Person 228            0 000000000000228
628406341248693753335       0000036212               Person 229            0 000000000000229
621248428962549270917       0000016353               Person 230            0 000000000000230
621412347199740150639       0000033103               Person 231            0 000000000000231
622230959104488128396       0000031054               Person 232            0 000000000000232
621373130297736213825       0000035042               Person 233            0 000000000000233
622741842668541849767       0000092383               Person 234            0 000000000000234
628731071023790490720       0000014250               Person 235            0 000000000000235
628221589643168514498       0000094576               Person 236            0 000000000000236
627876830158987543830       0000054424               Person 237            0 000000000000237
621179035362457858263       0000051175               Person 238            0 000000000000238
621325995887596538183       0000016542               Person 239            0 000000000000239
621591954148904448178       0000019569               Person 240            0 000000000000240
622416737892733692573       0000031142               Person 241            0 000000000000241
622509320098386847727       0000040692               Person 242            0 000000000000242
621498432084957766220       0000063939               Person 243            0 000000000000243
628378652528203447553       0000051404               Person 244            0 000000000000244
621643319727260742419       0000079883               Person 245            0 000000000000245
621661260439953771356       0000028654               Person 246            0 000000000000246
627779453289923322786       0000021048               Person 247            0 000000000000247
622354662739303195156       0000077774               Person 248            0 000000000000248
621335388531192256329       0000006777               Person 249            0 000000000000249
627402870316451122922       0000021489               Person 250            0 000000000000250
627287221143795249475       0000034327               Person 251            0 000000000000251
622338861342958771039       0000055859               Person 252            0 000000000000252
621206501804346356161       0000092230               Person 253            0 000000000000253
628851435704341853950       0000032240               Person 254            0 000000000000254
628783740838086422616       0000010341               Person 255            0 000000000000255
628133361575075982314       0000087426               Person 256            0 000000000000256
628844628776413693424       0000005924               Person 257            0 000000000000257
622301874293458658285       0000049536               Person 258            0 000000000000258
622614513476062979987       0000021233               Person 259            0 000000000000259
627695612542179061080       0000034623               Person 260            0 000000000000260
628899035691615368278       0000018855               Person 261            0 000000000000261
622772825502231793107       0000005105               Person 262            0 000000000000262
628300402044261776448       0000094058               Person 263            0 000000000000263
627247797116312190628       0000086035               Person 264            0 000000000000264
627520388532231682351       0000029452               Person 265            0 000000000000265
622640097545273795109       0000024090               Person 266            0 000000000000266
621595324004088094252       0000000409               Person 267            0 000000000000267
628121680788646265287       0000018391               Person 268            0 000000000000268
628180515424726722428       0000011756               Person 269            0 000000000000269
628471196373503262062       0000012922               Person 270            0 000000000000270
627379385871965819177       0000069538               Person 271            0 000000000000271
622915165134697406518       0000097003               Person 272            0 000000000000272
621964358536608298264       0000021339               Person 273            0 000000000000273
621662631184675461836       0000049301               Person 274            0 000000000000274
622706277268688150929       0000031116               Person 275            0 000000000000275
627385998238116046837       0000061537               Person 276            0 000000000000276
627452446339915414403       0000098184               Person 277            0 000000000000277
621148027229110165065       0000069711               Person 278            0 000000000000278
628198595935496110984       0000019590               Person 279            0 000000000000279
622267241156740574617       0000038501               Person 280            0 000000000000280
627797874341532262609       0000048656               Person 281            0 000000000000281
621690990099069721509       0000043097               Person 282            0 000000000000282
622752272942600674484       0000095490               Person 283            0 000000000000283
622122004374131728250       0000015272               Person 284            0 000000000000284
627688290192144678811       0000057869               Person 285            0 000000000000285
621433270505754498599       0000052162               Person 286            0 000000000000286
628522807895365703244       0000040832               Person 287            0 000000000000287
627672027855721116761       0000050912               Person 288            0 000000000000288
622933302407942655410       0000073768               Person 289            0 000000000000289
627995337058742125987       0000089230               Person 290            0 000000000000290
622956049836440620666       0000002029               Person 291            0 000000000000291
621320826565515002495       0000067114               Person 292            0 000000000000292
627222130188229507520       0000084522               Person 293            0 000000000000293
621740182231487257526       0000073545               Person 294            0 000000000000294
622555472113837191689       0000073424               Person 295            0 000000000000295
621651190823575596332       0000005467               Person 296            0 000000000000296
627289824815183938188       0000029805               Person 297            0 000000000000297
621326597032046083496       0000008895               Person 298            0 000000000000298
621719117501765647822       0000088267               Person 299            0 000000000000299
622839018075272108785       0000027730               Person 300            0 000000000000300
621953560171261751743       0000030656               Person 301            0 000000000000301
627660134087890126804       0000071493               Person 302            0 000000000000302
621340813698250175832       0000011464               Person 303            0 000000000000303
628140796373528324393       0000021605               Person 304            0 000000000000304
627215755454454935787       0000049713               Person 305            0 000000000000305
621930464561702049605       0000098057               Person 306            0 000000000000306
628948355437287483401       0000052368               Person 307            0 000000000000307
628365148257364510254       0000037796               Person 308            0 000000000000308
621532454701805374093       0000057820               Person 309            0 000000000000309
627952273117530410028       0000057202               Person 310            0 000000000000310
628881560791588229281       0000053887               Person 311            0 000000000000311
628977772433006512298       0000032383               Person 312            0 000000000000312
622172052948666661444       0000086841               Person 313            0 000000000000313
622365641842224437128       0000023437               Person 314            0 000000000000314
627817626849802111736       0000063010               Person 315            0 000000000000315
627756796747131062207       0000004111               Person 316            0 000000000000316
622981184613226394044       0000018383               Person 317            0 000000000000317
627412881909538218998       0000097487               Person 318            0 000000000000318
627954574535483492375       0000036063               Person 319            0 000000000000319
621946644315007868738       0000013481               Person 320            0 000000000000320
622765040132331469554       0000078284               Person 321            0 000000000000321
622297243208233883156       0000036682               Person 322            0 000000000000322
627417965966827468652       0000084399               Person 323            0 000000000000323
627272606302752347052       0000059825               Person 324            0 000000000000324
621588912325515140062       0000066714               Person 325            0 000000000000325
628795127729436140268       0000094617               Person 326            0 000000000000326
622280145881411392263       0000067125               Person 327            0 000000000000327
622293266795013261799       0000015948               Person 328            0 000000000000328
627951448875068735038       0000023110               Person 329            0 000000000000329
622108389092440630975       0000071319               Person 330            0 000000000000330
627847107726142815615       0000067061               Person 331            0 000000000000331
621387949256694368023       0000048505               Person 332            0 000000000000332
621757703239984207900       0000059116               Person 333            0 000000000000333
628749131905705209683       0000031161               Person 334            0 000000000000334
627515236597704431143       0000047496               Person 335            0 000000000000335
621143678414097876254       0000014081               Person 336            0 000000000000336
627281885785064367480       0000093399               Person 337            0 000000000000337
622407516908398333963       0000083452               Person 338            0 000000000000338
627789201917645251977       0000025251               Person 339            0 000000000000339
621673470391685412863       0000083765               Person 340            0 000000000000340
628150226116102503370       0000079233               Person 341            0 000000000000341
627661621692164232892       0000030933               Person 342            0 000000000000342
622103326899145036307       0000036097               Person 343            0 000000000000343
622278150375595410087       0000072613               Person 344            0 000000000000344
621528472152273177125       0000092553               Person 345            0 000000000000345
621808614093158065780       0000047951               Person 346            0 000000000000346
628851721654617272450       0000047781               Person 347            0 000000000000347
628293781154501527872       0000012641               Person 348            0 000000000000348
622628333191367780581       0000075486               Person 349            0 000000000000349
622105765005389699949       0000079084               Person 350            0 000000000000350
628504801045783425584       0000024580               Person 351            0 000000000000351
621505745375198055046       0000026136               Person 352            0 000000000000352
621989509508834011340       0000004453               Person 353            0 000000000000353
622661319592803721379       0000059847               Person 354            0 000000000000354
627454719349529575866       0000085279               Person 355            0 000000000000355
627404903187364760307       0000093013               Person 356            0 000000000000356
622610143178937951661       0000043153               Person 357            0 000000000000357
628939759092297349069       0000064330               Person 358            0 000000000000358
627612990501432674202       0000057292               Person 359            0 000000000000359
628745095499059723852       0000018149               Person 360            0 000000000000360
628840447398787976170       0000028007               Person 361            0 000000000000361
627330570835844489333       0000030056               Person 362            0 000000000000362
627145609152053651407       0000020662               Person 363            0 000000000000363
628373646837512564796       0000063432               Person 364            0 000000000000364
628509857615663836064       0000013796               Person 365            0 000000000000365
627659615815851649382       0000097293               Person 366            0 000000000000366
622327475886951122089       0000090446               Person 367            0 000000000000367
627686016103553961844       0000041197               Person 368            0 000000000000368
628496739181075262081       0000038626               Person 369            0 000000000000369
627308386925863751307       0000023191               Person 370            0 000000000000370
627367855093363072152       0000015654               Person 371            0 000000000000371
622135427925032726895       0000029044               Person 372            0 000000000000372
627543962037887216353       0000078295               Person 373            0 000000000000373
628585253544866137257       0000034367               Person 374            0 000000000000374
621764311588568350460       0000096300               Person 375            0 000000000000375
627599406025998704730       0000023443               Person 376            0 000000000000376
627178719807846603862       0000088515               Person 377            0 000000000000377
627286259426714487988       0000060666               Person 378            0 000000000000378
621197807268362875806       0000075800               Person 379            0 000000000000379
621388683071916663108       0000064692               Person 380            0 000000000000380
622936099931396274752       0000042049               Person 381            0 000000000000381
622247487995452056721       0000009864               Person 382            0 000000000000382
628969162031988006972       0000023841               Person 383            0 000000000000383
627498339033215124717       0000095522               Person 384            0 000000000000384
627256750535661137606       0000016598               Person 385            0 000000000000385
621880900329627172970       0000098543               Person 386            0 000000000000386
627884324204556626110       0000051588               Person 387            0 000000000000387
622694390576369320650       0000031100               Person 388            0 000000000000388
622851458809575333728       0000088995               Person 389            0 000000000000389
628702690926407535090       0000044575               Person 390            0 000000000000390
622285372694754371967       0000092778               Person 391            0 000000000000391
621146253218773876868       0000036346               Person 392            0 000000000000392
628720611937759715444       0000034977               Person 393            0 000000000000393
621193050579442582971       0000018875               Person 394            0 000000000000394
628495067071603528584       0000055034               Person 395            0 000000000000395
628377042431318307209       0000087187               Person 396            0 000000000000396
622190328068041104936       0000091567               Person 397            0 000000000000397
621652259598263998086       0000098299               Person 398            0 000000000000398
627274025558603351882       0000032674               Person 399            0 000000000000399
627913062919885529253       0000048582               Person 400            0 000000000000400
628385432653878770705       0000034197               Person 401            0 000000000000401
622584690666079563434       0000027837               Person 402            0 000000000000402
621881059403002265146       0000090596               Person 403            0 000000000000403
627929824199233530005       0000064255               Person 404            0 000000000000404
627941108761711096145       0000047532               Person 405            0 000000000000405
627795086361439947482       0000091437               Person 406            0 000000000000406
628797808362134000614       0000003113               Person 407            0 000000000000407
621617263722764639230       0000092539               Person 408            0 000000000000408
621562399009108970141       0000097425               Person 409            0 000000000000409
622844956247918527678       0000072861               Person 410            0 000000000000410
622990043909818626580       0000062439               Person 411            0 000000000000411
622770298529769950096       0000094612               Person 412            0 000000000000412
621713799208569085831       0000084534               Person 413            0 000000000000413
621574654846712171944       0000069346               Person 414            0 000000000000414
628718937161817980171       0000060179               Person 415            0 000000000000415
628971173753883120695       0000076710               Person 416            0 000000000000416
627914110111157123508       0000072678               Person 417            0 000000000000417
622730402127174356077       0000080256               Person 418            0 000000000000418
622905562954526218140       0000034812               Person 419            0 000000000000419
627713981062719597289       0000098188               Person 420            0 000000000000420
621946303971336431724       0000063593               Person 421            0 000000000000421
628732325676803112062       0000094568               Person 422            0 000000000000422
621522638015398821274       0000000918               Person 423            0 000000000000423
628944929838632196428       0000064391               Person 424            0 000000000000424
628170499651118988964       0000042636               Person 425            0 000000000000425
622723426499053404060       0000091479               Person 426            0 000000000000426
622385360593475742626       0000008058               Person 427            0 000000000000427
621121740876446313480       0000036671               Person 428            0 000000000000428
627714687753606599290       0000081108               Person 429            0 000000000000429
628958552821565356729       0000047125               Person 430            0 000000000000430
627587415354860983314       0000096148               Person 431            0 000000000000431
622468850576918138078       0000030058               Person 432            0 000000000000432
622201842721861367145       0000039763               Person 433            0 000000000000433
627714547188252547754       0000025395               Person 434            0 000000000000434
628356218345892245181       0000078983               Person 435            0 000000000000435
627217130297327931965       0000091238               Person 436            0 000000000000436
622518034721955419670       0000071979               Person 437            0 000000000000437
627214722612837134901       0000058889               Person 438            0 000000000000438
628883632769856181944       0000014657               Person 439            0 000000000000439
622738652529394967296       0000060188               Person 440            0 000000000000440
621411617149308136038       0000005680               Person 441            0 000000000000441
627347180845654048618       0000064149               Person 442            0 000000000000442
627619970076609453278       0000010712               Person 443            0 000000000000443
622569511206710580322       0000067076               Person 444            0 000000000000444
627160427769778546870       0000085882               Person 445            0 000000000000445
627498976337121992161       0000066810               Person 446            0 000000000000446
628548933551411105375       0000035884               Person 447            0 000000000000447
627117646861494629913       0000073447               Person 448            0 000000000000448
627142244612065855388       0000090273               Person 449            0 000000000000449
622488206923124763281       0000073563               Person 450            0 000000000000450
628447169736423728733       0000007675               Person 451            0 000000000000451
627708503364319031710       0000099204               Person 452            0 000000000000452
622270459862946502892       0000040322               Person 453            0 000000000000453
627321450663635322799       0000056040               Person 454            0 000000000000454
622949793614511394554       0000083852               Person 455            0 000000000000455
621310398926152158221       0000016272               Person 456            0 000000000000456
628202848595153942279       0000017907               Person 457            0 000000000000457
627160167765732459701       0000034756               Person 458            0 000000000000458
621421531303004810719       0000062739               Person 459            0 000000000000459
628730299925813854524       0000068963               Person 460            0 000000000000460
627246244396768479675       0000050365               Person 461            0 000000000000461
627492227105084766043       0000061920               Person 462            0 000000000000462
621160637788061510863       0000085847               Person 463            0 000000000000463
627129234312111045817       0000034199               Person 464            0 000000000000464
621519865778885235032       0000025977               Person 465            0 000000000000465
621284445864792151256       0000049159               Person 466            0 000000000000466
621979299904289611166       0000061547               Person 467            0 000000000000467
627380401209990098942       0000086349               Person 468            0 000000000000468
627540227002233822644       0000087829               Person 469            0 000000000000469
622782903012709316833       0000073485               Person 470            0 000000000000470
627361551461122874527       0000098966               Person 471            0 000000000000471
627458068742395692927       0000046684               Person 472            0 000000000000472
628243944871742783667       0000034766               Person 473            0 000000000000473
622428594124302762058       0000052885               Person 474            0 000000000000474
628117903964648797900       0000088932               Person 475            0 000000000000475
628143954522128773102       0000031530               Person 476            0 000000000000476
627549452826753471314       0000029594               Person 477            0 000000000000477
621253881766756080778       0000036006               Person 478            0 000000000000478
627968421313615800272       0000015670               Person 479            0 000000000000479
628904593627262719666       0000084985               Person 480            0 000000000000480
628377896499916198922       0000077421               Person 481            0 000000000000481
622773215313698229065       0000097081               Person 482            0 000000000000482
628828752105121529802       0000037261               Person 483            0 000000000000483
622266283861129128934       0000020383               Person 484            0 000000000000484
621793940838974641883       0000089041               Person 485            0 000000000000485
627492693874345889241       0000063827               Person 486            0 000000000000486
622884632401905119142       0000081621               Person 487            0 000000000000487
628340687632814871020       0000015985               Person 488            0 000000000000488
627881674816629737929       0000068084               Person 489            0 000000000000489
622641956693798131391       0000071811               Person 490            0 000000000000490
621299926723388051741       0000020931               Person 491            0 000000000000491
627732506485599788349       0000099413               Person 492            0 000000000000492
622669123047568466153       0000020441               Person 493            0 000000000000493
621368707423653902858       0000064141               Person 494            0 000000000000494
621924975141143594593       0000067889               Person 495            0 000000000000495
628894278662937213265       0000050745               Person 496            0 000000000000496
621767285336994967121       0000086832               Person 497            0 000000000000497
622485813709833263508       0000001568               Person 498            0 000000000000498
628387800647912110228       0000048108               Person 499            0 000000000000499
627958490339049760706       0000082902               Person 500            0 000000000000500
628606722574634824451       0000088805               Person 501            0 000000000000501
627538292002565368136       0000055708               Person 502            0 000000000000502
628120342032910968414       0000032754               Person 503            0 000000000000503
628416840793057590715       0000033773               Person 504            0 000000000000504
621115225245282882544       0000053299               Person 505            0 000000000000505
621633034823766107409       0000038781               Person 506            0 000000000000506
622399264082554163178       0000018417               Person 507            0 000000000000507
628208132606723493056       0000065290               Person 508            0 000000000000508
621319935503662527732       0000084265               Person 509            0 000000000000509
628139771646835371105       0000027937               Person 510            0 000000000000510
621873081752297344868       0000044427               Person 511            0 000000000000511
622672880623312877938       0000078245               Person 512            0 000000000000512
627904803314344092405       0000030516               Person 513            0 000000000000513
628682188188115570646       0000025399               Person 514            0 000000000000514
627371450958136335864       0000023409               Person 515            0 000000000000515
627508439662031657039       0000082892               Person 516            0 000000000000516
621275593836437158319       0000006038               Person 517            0 000000000000517
627661558594102467868       0000089580               Person 518            0 000000000000518
628647500555111138663       0000066850               Person 519            0 000000000000519
622898874126203727622       0000094761               Person 520            0 000000000000520
628331610683919209385       0000043681               Person 521            0 000000000000521
621187351808341998695       0000086181               Person 522            0 000000000000522
622996475421264995281       0000042109               Person 523            0 000000000000523
627686234275064602279       0000000785               Person 524            0 000000000000524
622623651904498147165       0000095854               Person 525            0 000000000000525
622714398671186910893       0000040045               Person 526            0 000000000000526
627231663659401950477       0000085064               Person 527            0 000000000000527
628303708021471147351       0000087438               Person 528            0 000000000000528
622923030286193958229       0000087353               Person 529            0 000000000000529
622539689816589093685       0000038903               Person 530            0 000000000000530
621114314112172482396       0000061766               Person 531            0 000000000000531
628369075346939795696       0000042934               Person 532            0 000000000000532
621382946073351210967       0000022753               Person 533            0 000000000000533
628101655462641487034       0000039623               Person 534            0 000000000000534
622873335113201944139       0000006087               Person 535            0 000000000000535
621119146881574802428       0000010049               Person 536            0 000000000000536
628695086497625433431       0000074547               Person 537            0 000000000000537
627208237031498175550       0000051454               Person 538            0 000000000000538
627562232634891799245       0000070965               Person 539            0 000000000000539
621241906759617224770       0000062305               Person 540            0 000000000000540
621296792701332205732       0000039100               Person 541            0 000000000000541
627455079111108659009       0000030495               Person 542            0 000000000000542
622766415892255846729       0000063953               Person 543            0 000000000000543
621366987833370011590       0000048434               Person 544            0 000000000000544
627488574939576002391       0000019041               Person 545            0 000000000000545
628253510443805951880       0000074469               Person 546            0 000000000000546
628645547383578993891       0000088453               Person 547            0 000000000000547
622830442517559592678       0000026663               Person 548            0 000000000000548
621405620532939107278       0000059589               Person 549            0 000000000000549
627290226663491269996       0000089412               Person 550            0 000000000000550
621986682126971919056       0000054222               Person 551            0 000000000000551
627748913247101757158       0000046699               Person 552            0 000000000000552
622843587095433884369       0000023379               Person 553            0 000000000000553
627221772282503248203       0000046903               Person 554            0 000000000000554
628894170776643098456       0000072977               Person 555            0 000000000000555
622842204148850001337       0000027732               Person 556            0 000000000000556
622729338129149883840       0000055145               Person 557            0 000000000000557
628435451886473752564       0000049855               Person 558            0 000000000000558
628996856689186835185       0000034583               Person 559            0 000000000000559
627226983742771284147       0000099691               Person 560            0 000000000000560
621793656833696990779       0000051512               Person 561            0 000000000000561
621117182058241205213       0000089949               Person 562            0 000000000000562
622192171822865601857       0000037390               Person 563            0 000000000000563
627773647454880540003       0000043319               Person 564            0 000000000000564
622874088855736375368       0000027563               Person 565            0 000000000000565
622380597357114286659       0000005959               Person 566            0 000000000000566
628256990001162077359       0000019068               Person 567            0 000000000000567
622656911407205109450       0000082679               Person 568            0 000000000000568
627889518989051202722       0000084034               Person 569            0 000000000000569
627857101719016579234       0000055533               Person 570            0 000000000000570
621266153845822369045       0000038907               Person 571            0 000000000000571
628286355966257723661       0000015208               Person 572            0 000000000000572
627242056617833112027       0000062420               Person 573            0 000000000000573
627121934932945669124       0000060822               Person 574            0 000000000000574
628544964096321520480       0000062843               Person 575            0 000000000000575
628465246161419342021       0000082654               Person 576            0 000000000000576
621602869447539136694       0000097752               Person 577            0 000000000000577
621217877898118473605       0000019441               Person 578            0 000000000000578
622374130184058403252       0000055210               Person 579            0 000000000000579
622625313926885596352       0000094254               Person 580            0 000000000000580
627540404878879049326       0000070934               Person 581            0 000000000000581
627711986264089418585       0000076572               Person 582            0 000000000000582
622738360173509848025       0000011497               Person 583            0 000000000000583
627196836019710081412       0000034840               Person 584            0 000000000000584
627794209501373577211       0000051754               Person 585            0 000000000000585
621113075286190187762       0000098702               Person 586            0 000000000000586
621403452308211581000       0000070816               Person 587            0 000000000000587
628794486752686050776       0000029792               Person 588            0 000000000000588
621898806437285669068       0000018251               Person 589            0 000000000000589
627102575285109918168       0000019566               Person 590            0 000000000000590
621483229746645968589       0000037364               Person 591            0 000000000000591
627260992534136577179       0000016487               Person 592            0 000000000000592
628266116059315320532       0000058143               Person 593            0 000000000000593
628178227201796701004       0000040324               Person 594            0 000000000000594
622465608123652397820       0000091949               Person 595            0 000000000000595
622223249395833552432       0000063689               Person 596            0 000000000000596
628502328762026228870       0000031932               Person 597            0 000000000000597
621354958658342172393       0000007428               Person 598            0 000000000000598
622563052592042218288       0000039894               Person 599            0 000000000000599
622182618903167487442       0000028630               Person 600            0 000000000000600
628552662236084003643       0000037646               Person 601            0 000000000000601
622685555976501273158       0000066097               Person 602            0 000000000000602
622626609539028341703       0000029882               Person 603            0 000000000000603
628806506363879690587       0000027833               Person 604            0 000000000000604
628682559606617904487       0000077588               Person 605            0 000000000000605
622142539317410031131       0000047297               Person 606            0 000000000000606
622785525848541677623       0000043910               Person 607            0 000000000000607
621629802407997556389       0000025037               Person 608            0 000000000000608
628879248882482210569       0000064507               Person 609            0 000000000000609
627724013097442352110       0000082510               Person 610            0 000000000000610
622729546417322471220       0000091169               Person 611            0 000000000000611
622926085335172159239       0000058332               Person 612            0 000000000000612
628859784592962884106       0000096455               Person 613            0 000000000000613
628884692015354191425       0000063569               Person 614            0 000000000000614
627528266575982479239       0000062812               Person 615            0 000000000000615
621799969454988650090       0000034556               Person 616            0 000000000000616
627661068932794530063       0000034832               Person 617            0 000000000000617
621102088709324527073       0000049176               Person 618            0 000000000000618
627122850355390390091       0000064746               Person 619            0 000000000000619
622578462223704814769       0000093194               Person 620            0 000000000000620
621313840611772058392       0000028806               Person 621            0 000000000000621
628838140098179286650       0000025652               Person 622            0 000000000000622
627830400278578423880       0000037977               Person 623            0 000000000000623
621438845155358909830       0000085472               Person 624            0 000000000000624
622528589219579243796       0000014647               Person 625            0 000000000000625
628270714877454459524       0000057012               Person 626            0 000000000000626
627272023096017767992       0000039824               Person 627            0 000000000000627
621111192132935651491       0000021375               Person 628            0 000000000000628
627536406183858767907       0000095729               Person 629            0 000000000000629
627259646296088134434       0000047193               Person 630            0 000000000000630
627787510837196616789       0000006629               Person 631            0 000000000000631
621134055257712068527       0000090218               Person 632            0 000000000000632
621439148116369769998       0000046736               Person 633            0 000000000000633
621314644646118991422       0000047386               Person 634            0 000000000000634
627832364803794107154       0000080713               Person 635            0 000000000000635
622367330899553122398       0000051356               Person 636            0 000000000000636
627885182909551170795       0000077891               Person 637            0 000000000000637
621743352482889235834       0000066556               Person 638            0 000000000000638
621166227014035088120       0000068167               Person 639            0 000000000000639
628715699232654761735       0000055038               Person 640            0 000000000000640
622182577759573677240       0000056560               Person 641            0 000000000000641
621951427553676691196       0000020975               Person 642            0 000000000000642
622864800637691326905       0000056821               Person 643            0 000000000000643
627120422133878933855       0000091984               Person 644            0 000000000000644
628466521574110165838       0000078901               Person 645            0 000000000000645
628375107584173177188       0000018700               Person 646            0 000000000000646
628349746798033856487       0000001001               Person 647            0 000000000000647
627694027817362023665       0000010551               Person 648            0 000000000000648
621841105365666673361       0000065078               Person 649            0 000000000000649
621565307671857368563       0000059669               Person 650            0 000000000000650
627380122651172968030       0000004597               Person 651            0 000000000000651
627214983189685635377       0000025873               Person 652            0 000000000000652
628237858846092704682       0000032355               Person 653            0 000000000000653
628165525874150548247       0000066894               Person 654            0 000000000000654
621992565489665368969       0000018777               Person 655            0 000000000000655
622511956902454940442       0000074645               Person 656            0 000000000000656
621472805997951490323       0000052545               Person 657            0 000000000000657
621240089929251157210       0000032262               Person 658            0 000000000000658
628319730049661658266       0000028918               Person 659            0 000000000000659
621937226969512473242       0000061359               Person 660            0 000000000000660
628847805772473472554       0000076848               Person 661            0 000000000000661
622559049519649382386       0000087738               Person 662            0 000000000000662
622364408028392287034       0000054310               Person 663            0 000000000000663
622909005798171822133       0000091011               Person 664            0 000000000000664
621785616507624637144       0000082534               Person 665            0 000000000000665
621336586945534322730       0000090681               Person 666            0 000000000000666
627884955815308786222       0000045627               Person 667            0 000000000000667
628436193986414061438       0000019881               Person 668            0 000000000000668
621793445944218590069       0000012447               Person 669            0 000000000000669
622752937127223357833       0000098358               Person 670            0 000000000000670
621477530819889733077       0000091521               Person 671            0 000000000000671
621535522444484424517       0000002893               Person 672            0 000000000000672
627381097917593156464       0000001181               Person 673            0 000000000000673
622535591322525235548       0000070347               Person 674            0 000000000000674
621724262348447537870       0000029536               Person 675            0 000000000000675
628995653452503420747       0000052343               Person 676            0 000000000000676
621231306713777402579       0000067302               Person 677            0 000000000000677
621587443293394644685       0000060000               Person 678            0 000000000000678
622494512714045167490       0000010192               Person 679            0 000000000000679
627143159512644908697       0000024644               Person 680            0 000000000000680
628750466042499198820       0000083980               Person 681            0 000000000000681
622321632523049200154       0000078465               Person 682            0 000000000000682
628999957105608366313       0000049673               Person 683            0 000000000000683
622165272416866900227       0000083056               Person 684            0 000000000000684
628570974351076278951       0000073144               Person 685            0 000000000000685
622833539298546012163       0000047253               Person 686            0 000000000000686
627906018592584366056       0000017163               Person 687            0 000000000000687
622832103377684745741       0000025480               Person 688            0 000000000000688
627425667623980534857       0000013543               Person 689            0 000000000000689
628638921759598010408       0000087128               Person 690            0 000000000000690
621133398151293022609       0000043624               Person 691            0 000000000000691
628891995232884092054       0000035321               Person 692            0 000000000000692
628396268996643344411       0000026213               Person 693            0 000000000000693
627545741368436015218       0000036486               Person 694            0 000000000000694
621284318093391561409       0000015994               Person 695            0 000000000000695
622604497258133532339       0000044152               Person 696            0 000000000000696
621884671662529673261       0000099210               Person 697            0 000000000000697
621447881412739533648       0000023170               Person 698            0 000000000000698
621879166293498531434       0000079371               Person 699            0 000000000000699
627764043952704705866       0000027638               Person 700            0 000000000000700
622636299854755885249       0000065140               Person 701            0 000000000000701
621449900193967914565       0000037636               Person 702            0 000000000000702
621387716786716162013       0000052627               Person 703            0 000000000000703
622283370527955015972       0000062324               Person 704            0 000000000000704
622681755322670953296       0000089011               Person 705            0 000000000000705
622612061093627576371       0000040179               Person 706            0 000000000000706
627545913212170566495       0000058604               Person 707            0 000000000000707
621208887076432639415       0000068051               Person 708            0 000000000000708
628911895708666183158       0000021850               Person 709            0 000000000000709
621761947034816354151       0000099426               Person 710            0 000000000000710
621947999153711142786       0000092338               Person 711            0 000000000000711
627800768638077670381       0000051465               Person 712            0 000000000000712
628581994421954900416       0000070611               Person 713            0 000000000000713
627352671715147695541       0000089415               Person 714            0 000000000000714
627136627973587318536       0000069108               Person 715            0 000000000000715
622934922502136514616       0000035126               Person 716            0 000000000000716
622721533828779613142       0000052242               Person 717            0 000000000000717
628965508837730893977       0000011720               Person 718            0 000000000000718
621388039096266269538       0000038503               Person 719            0 000000000000719
628739373967797491243       0000037765               Person 720            0 000000000000720
622741847371274517237       0000011709               Person 721            0 000000000000721
628356189763711654380       0000084668               Person 722            0 000000000000722
627573887606774118971       0000060782               Person 723            0 000000000000723
627856486924879166178       0000083695               Person 724            0 000000000000724
628595304361234902031       0000099385               Person 725            0 000000000000725
628340364456476933931       0000096775               Person 726            0 000000000000726
628807848674378077539       0000042812               Person 727            0 000000000000727
621507993608629950509       0000021108               Person 728            0 000000000000728
628207670792735989881       0000066151               Person 729            0 000000000000729
627736128185440073357       0000025812               Person 730            0 000000000000730
627278205284947480780       0000097764               Person 731            0 000000000000731
622463905819658457705       0000051862               Person 732            0 000000000000732
622528094832827214802       0000037641               Person 733            0 000000000000733
622383625741816982809       0000096314               Person 734            0 000000000000734
628186712034652207199       0000032958               Person 735            0 000000000000735
627685426846644803622       0000061931               Person 736            0 000000000000736
622281384519085652934       0000025149               Person 737            0 000000000000737
621260235043674250969       0000006015               Person 738            0 000000000000738
622467964229637927546       0000089188               Person 739            0 000000000000739
622484116282354922654       0000091262               Person 740            0 000000000000740
627190841211003069212       0000082977               Person 741            0 000000000000741
621256112401948505395       0000016648               Person 742            0 000000000000742
628690766621833452021       0000091510               Person 743            0 000000000000743
621742415366744810477       0000035243               Person 744            0 000000000000744
627272508407454914845       0000098771               Person 745            0 000000000000745
621763983494132279401       0000056088               Person 746            0 000000000000746
627717226376895671008       0000061995               Person 747            0 000000000000747
622685123369372262196       0000084983               Person 748            0 000000000000748
621910928913542683900       0000063250               Person 749            0 000000000000749
622574391536229553725       0000046347               Person 750            0 000000000000750
621464876995296673463       0000017643               Person 751            0 000000000000751
628855536691978250235       0000051093               Person 752            0 000000000000752
627109259341935680448       0000070283               Person 753            0 000000000000753
628850101308967857499       0000038279               Person 754            0 000000000000754
622218858603827981585       0000069499               Person 755            0 000000000000755
621366683403887532673       0000000108               Person 756            0 000000000000756
628112176071660806898       0000097813               Person 757            0 000000000000757
628906990007019460706       0000073158               Person 758            0 000000000000758
627359044986315472352       0000049648               Person 759            0 000000000000759
627144458485883446657       0000095128               Person 760            0 000000000000760
622360665392666059783       0000032806               Person 761            0 000000000000761
622694724583550027286       0000084934               Person 762            0 000000000000762
621963504501116812091       0000017400               Person 763            0 000000000000763
628122634072522537218       0000074238               Person 764            0 000000000000764
621756694537210032949       0000017920               Person 765            0 000000000000765
621466911622430335571       0000037087               Person 766            0 000000000000766
628202227305236824177       0000074869               Person 767            0 000000000000767
622410786213041408150       0000091998               Person 768            0 000000000000768
627335322719878840142       0000007030               Person 769            0 000000000000769
627536316541493369431       0000042251               Person 770            0 000000000000770
627144210206129823039       0000017758               Person 771            0 000000000000771
627851057314778100511       0000011126               Person 772            0 000000000000772
622972257108187176862       0000020762               Person 773            0 000000000000773
621981393483886557028       0000045413               Person 774            0 000000000000774
621811635983821366548       0000066635               Person 775            0 000000000000775
628679447353355202867       0000051319               Person 776            0 000000000000776
622242716901230795531       0000060945               Person 777            0 000000000000777
621384540652879791898       0000046015               Person 778            0 000000000000778
627248596364860070332       0000066276               Person 779            0 000000000000779
628286265372654960825       0000010548               Person 780            0 000000000000780
622893504345263476159       0000015294               Person 781            0 000000000000781
628669888193164240455       0000095798               Person 782            0 000000000000782
621244727075360037934       0000039579               Person 783            0 000000000000783
628215111809161668770       0000063687               Person 784            0 000000000000784
628678825327916899748       0000098724               Person 785            0 000000000000785
622406160697402812713       0000043192               Person 786            0 000000000000786
622996257182021975949       0000074581               Person 787            0 000000000000787
621922032399358674301       0000062260               Person 788            0 000000000000788
627730901691397074120       0000088780               Person 789            0 000000000000789
621433004328295419673       0000076586               Person 790            0 000000000000790
627439394044171241331       0000007622               Person 791            0 000000000000791
628547595043101594634       0000092737               Person 792            0 000000000000792
627207159862795188030       0000096989               Person 793            0 000000000000793
627949664624257086973       0000020997               Person 794            0 000000000000794
621105420529686351448       0000077058               Person 795            0 000000000000795
628710130296884063456       0000039459               Person 796            0 000000000000796
622500512852699337175       0000035995               Person 797            0 000000000000797
627828414512691585607       0000073069               Person 798            0 000000000000798
622309361355229871303       0000039582               Person 799            0 000000000000799
627875029177669393381       0000006652               Person 800            0 000000000000800
627917714359419680586       0000045455               Person 801            0 000000000000801
621473618745752768206       0000061449               Person 802            0 000000000000802
628834433258625467400       0000071307               Person 803            0 000000000000803
622352742181735411340       0000034474               Person 804            0 000000000000804
621942783441329291856       0000056333               Person 805            0 000000000000805
628206963521495437761       0000053182               Person 806            0 000000000000806
621582822289043287550       0000041056               Person 807            0 000000000000807
628199437233660152412       0000081588               Person 808            0 000000000000808
621177316349065475594       0000018946               Person 809            0 000000000000809
621134474294694100724       0000078135               Person 810            0 000000000000810
622876470267570120306       0000049262               Person 811            0 000000000000811
627999021653580522170       0000050795               Person 812            0 000000000000812
628706501263625673373       0000008826               Person 813            0 000000000000813
622476535891376325930       0000013403               Person 814            0 000000000000814
627658689777365244186       0000083647               Person 815            0 000000000000815
622719962892554378433       0000027590               Person 816            0 000000000000816
622260588637213859725       0000012324               Person 817            0 000000000000817
621241947812748683596       0000072080               Person 818            0 000000000000818
622592182084315305531       0000074646               Person 819            0 000000000000819
621985330818906885226       0000086850               Person 820            0 000000000000820
627603628244351624045       0000072858               Person 821            0 000000000000821
627791931431692702979       0000036018               Person 822            0 000000000000822
621263304008107740937       0000017942               Person 823            0 000000000000823
627224758179796923120       0000016817               Person 824            0 000000000000824
627519897361234996057       0000034271               Person 825            0 000000000000825
621395522191139303377       0000044042               Person 826            0 000000000000826
627542525017044654173       0000006853               Person 827            0 000000000000827
622912579462651387356       0000014093               Person 828            0 000000000000828
627456392699321526435       0000085645               Person 829            0 000000000000829
628915856366040760383       0000085295               Person 830            0 000000000000830
628595060867440829876       0000057714               Person 831            0 000000000000831
627820387871746853408       0000052238               Person 832            0 000000000000832
621904331763234172422       0000010257               Person 833            0 000000000000833
628847592687257365369       0000099151               Person 834            0 000000000000834
621903222439956569778       0000050374               Person 835            0 000000000000835
622100874725243844726       0000019349               Person 836            0 000000000000836
621103558943864312649       0000074225               Person 837            0 000000000000837
628480164259959407891       0000056910               Person 838            0 000000000000838
628336614996702940059       0000019930               Person 839            0 000000000000839
627410331901153036084       0000029658               Person 840            0 000000000000840
622252439867196437570       0000029139               Person 841            0 000000000000841
621834893671070491845       0000096543               Person 842            0 000000000000842
621207490316703199462       0000053265               Person 843            0 000000000000843
622417978286850583556       0000058341               Person 844            0 000000000000844
622980663862692126428       0000022943               Person 845            0 000000000000845
628215119123256433120       0000059823               Person 846            0 000000000000846
622856409065483282810       0000011962               Person 847            0 000000000000847
622514415804518421836       0000039060               Person 848            0 000000000000848
622584996068770642667       0000025654               Person 849            0 000000000000849
621853190944363202259       0000008454               Person 850            0 000000000000850
628361142579265857470       0000058001               Person 851            0 000000000000851
621538047369971550073       0000024695               Person 852            0 000000000000852
621509055609122642066       0000083072               Person 853            0 000000000000853
627154584727161663906       0000009982               Person 854            0 000000000000854
622964535139269632450       0000008705               Person 855            0 000000000000855
621313822864111469271       0000044754               Person 856            0 000000000000856
621809125052622825974       0000057325               Person 857            0 000000000000857
628383568792252915091       0000012189               Person 858            0 000000000000858
628194087517037612940       0000076257               Person 859            0 000000000000859
628394752697672560564       0000079083               Person 860            0 000000000000860
628428421848142793666       0000053007               Person 861            0 000000000000861
628363962674462290258       0000083943               Person 862            0 000000000000862
622165678731871744844       0000011706               Person 863            0 000000000000863
621300988006771215897       0000044611               Person 864            0 000000000000864
622702200086181565159       0000071934               Person 865            0 000000000000865
622593294364054957576       0000080911               Person 866            0 000000000000866
622192200743375079376       0000026813               Person 867            0 000000000000867
622486559849422165765       0000010941               Person 868            0 000000000000868
628235088601665802154       0000077503               Person 869            0 000000000000869
628964695113579754007       0000058915               Person 870            0 000000000000870
622484357652115615535       0000002671               Person 871            0 000000000000871
628840360892591291469       0000049874               Person 872            0 000000000000872
627640875822662377972       0000097739               Person 873            0 000000000000873
627685722507491140054       0000065396               Person 874            0 000000000000874
622562441186900771298       0000072643               Person 875            0 000000000000875
621285042149119764666       0000031218               Person 876            0 000000000000876
622575912369828747578       0000009670               Person 877            0 000000000000877
628681264935775256553       0000096688               Person 878            0 000000000000878
622709252168518884025       0000061628               Person 879            0 000000000000879
628547117547295096776       0000049937               Person 880            0 000000000000880
628319980346144372966       0000079025               Person 881            0 000000000000881
622368368906670164525       0000068039               Person 882            0 000000000000882
621802282402363044155       0000074723               Person 883            0 000000000000883
621191372921314407195       0000040264               Person 884            0 000000000000884
628421506582021872818       0000072829               Person 885            0 000000000000885
627538878214685316855       0000057792               Person 886            0 000000000000886
622271455169315402580       0000091089               Person 887            0 000000000000887
628466866733594741371       0000071738               Person 888            0 000000000000888
621378167445679376742       0000095607               Person 889            0 000000000000889
622177533189254907592       0000032178               Person 890            0 000000000000890
627997734262407991393       0000028978               Person 891            0 000000000000891
621395830232098232950       0000028748               Person 892            0 000000000000892
622910310617883803297       0000058656               Person 893            0 000000000000893
621322283176885222663       0000042978               Person 894            0 000000000000894
622528886251835286102       0000034776               Person 895            0 000000000000895
621198978965871345895       0000036509               Person 896            0 000000000000896
622629117896653953112       0000031361               Person 897            0 000000000000897
628318652324985863104       0000001591               Person 898            0 000000000000898
627833439592226798831       0000058664               Person 899            0 000000000000899
628173288888708726369       0000065952               Person 900            0 000000000000900
621368832756158211954       0000029651               Person 901            0 000000000000901
627691937375899780157       0000004248               Person 902            0 000000000000902
628271394892229178100       0000095144               Person 903            0 000000000000903
622500897152104607426       0000011955               Person 904            0 000000000000904
621539008656976914667       0000093604               Person 905            0 000000000000905
622772895104712485750       0000062870               Person 906            0 000000000000906
628944589728648834157       0000052170               Person 907            0 000000000000907
621567761506187437924       0000062243               Person 908            0 000000000000908
621342714048045682647       0000000418               Person 909            0 000000000000909
627558870102351029728       0000044611               Person 910            0 000000000000910
621424878449010789723       0000062666               Person 911            0 000000000000911
628284688952957693765       0000018589               Person 912            0 000000000000912
628133178469609924695       0000002916               Person 913            0 000000000000913
628973795092292206011       0000044012               Person 914            0 000000000000914
627641204068424022407       0000086058               Person 915            0 000000000000915
622173532058502351803       0000094739               Person 916            0 000000000000916
627534973147610071280       0000063637               Person 917            0 000000000000917
622788078183106327874       0000052591               Person 918            0 000000000000918
622627822017425168700       0000009787               Person 919            0 000000000000919
621624831508147585908       0000033698               Person 920            0 000000000000920
628627265298020481811       0000051959               Person 921            0 000000000000921
622360670029795396205       0000063921               Person 922            0 000000000000922
627218881781753412493       0000092733               Person 923            0 000000000000923
627700858875663955358       0000076762               Person 924            0 000000000000924
628731953511658502070       0000083266               Person 925            0 000000000000925
622660963159725968968       0000048631               Person 926            0 000000000000926
622827387572042385192       0000012583               Person 927            0 000000000000927
628464002333856512912       0000085260               Person 928            0 000000000000928
628520797743918012057       0000078141               Person 929            0 000000000000929
628779544918676492017       0000092345               Person 930            0 000000000000930
622563123043662444729       0000025315               Person 931            0 000000000000931
622634055957872861890       0000043420               Person 932            0 000000000000932
622509290324906547250       0000082169               Person 933            0 000000000000933
628326570592422621935       0000079286               Person 934            0 000000000000934
627130552476105324756       0000014926               Person 935            0 000000000000935
622107912972993628305       0000077733               Person 936            0 000000000000936
628752025735796273550       0000051741               Person 937            0 000000000000937
622503970103299110860       0000089487               Person 938            0 000000000000938
627184824125926815871       0000045059               Person 939            0 000000000000939
622129047541901439746       0000059865               Person 940            0 000000000000940
622375878366258708679       0000096645               Person 941            0 000000000000941
622609249267158273306       0000027739               Person 942            0 000000000000942
621400084831591333430       0000030910               Person 943            0 000000000000943
621698560511815703099       0000009367               Person 944            0 000000000000944
621703735044858283145       0000037673               Person 945            0 000000000000945
627864819035947062842       0000002706               Person 946            0 000000000000946
628852731086832977636       0000029103               Person 947            0 000000000000947
627309531958577049505       0000084152               Person 948            0 000000000000948
622201184072052164625       0000011525               Person 949            0 000000000000949
622646001646238174844       0000065591               Person 950            0 000000000000950
622542685697850385155       0000034289               Person 951            0 000000000000951
622980769263631690354       0000055114               Person 952            0 000000000000952
621251011959559069488       0000006702               Person 953            0 000000000000953
621542326936574444746       0000026704               Person 954            0 000000000000954
628374899864027027845       0000026068               Person 955            0 000000000000955
621420085788395366269       0000016811               Person 956            0 000000000000956
628264419334623206721       0000033208               Person 957            0 000000000000957
627739383961990924539       0000098460               Person 958            0 000000000000958
622370461599012643121       0000009412               Person 959            0 000000000000959
627224832429466539228       0000038062               Person 960            0 000000000000960
622610195554152592175       0000080013               Person 961            0 000000000000961
627818935705894554694       0000052694               Person 962            0 000000000000962
627721447975188131346       0000035981               Person 963            0 000000000000963
621119411321075106329       0000024603               Person 964            0 000000000000964
628715389234168981601       0000039005               Person 965            0 000000000000965
621577695204619482657       0000036118               Person 966            0 000000000000966
628600723318835557650       0000036908               Person 967            0 000000000000967
627399585157330001387       0000040486               Person 968            0 000000000000968
628863518575618592496       0000074956               Person 969            0 000000000000969
621703412818306752448       0000024113               Person 970            0 000000000000970
628820218178338177623       0000002818               Person 971            0 000000000000971
627529515733265116448       0000071777               Person 972            0 000000000000972
628169594403301539078       0000077964               Person 973            0 000000000000973
628995168495907234021       0000019500               Person 974            0 000000000000974
621236237706898442142       0000013923               Person 975            0 000000000000975
627729080823864659008       0000008767               Person 976            0 000000000000976
622467432498474927809       0000065941               Person 977            0 000000000000977
628102092796211832087       0000097804               Person 978            0 000000000000978
628101523304547842626       0000099389               Person 979            0 000000000000979
628938863412969469247       0000055077               Person 980            0 000000000000980
627240454163713656432       0000020638               Person 981            0 000000000000981
622730415517354145184       0000090185               Person 982            0 000000000000982
628196096112014027382       0000030309               Person 983            0 000000000000983
627762244169694161197       0000048238               Person 984            0 000000000000984
627327657804850099189       0000002837               Person 985            0 000000000000985
627235270289084375031       0000026632               Person 986            0 000000000000986
621773052764071035663       0000007310               Person 987            0 000000000000987
621364428129250056937       0000054977               Person 988            0 000000000000988
628810733229391683574       0000097436               Person 989            0 000000000000989
622115374783892611457       0000038905               Person 990            0 000000000000990
622734934972918261834       0000003324               Person 991            0 000000000000991
628833773548688846235       0000002312               Person 992            0 000000000000992
621655866135933325581       0000031660               Person 993            0 000000000000993
622907321785341360970       0000080126               Person 994            0 000000000000994
627406955154034283581       0000094313               Person 995            0 000000000000995
622173087161186162689       0000042712               Person 996            0 000000000000996
621431273246784051857       0000073407               Person 997            0 000000000000997
628853868782969494978       0000026341               Person 998            0 000000000000998
628893253813291111940       0000055089               Person 999            0 000000000000999
621451919467600830668       0000098654               Person 1000           0 000000000001000
822020000100053985458081000000000000000051709115987654321                          987654320000001
9000000000010001000000100053985458081000000000000000051709115                                       
9999999999999999999999999999999999999999999999999999999999999999999999999999999999999999999999
